:020000040000FA
:0600000092EF01F0120076
:020006000000F8
:08000800D9CFE6FFE1CFD9FFDB
:10001000020EE126DE6ADD6ADECF02F0DDCF03F0FC
:100020005A0E025C000E035805E2DF2A010E01E3BE
:10003000DB2AF2D7020EE15C02E2E16AE552E16EF0
:10004000E552E7CFD9FF1200D9CFE6FFE1CFD9FFC4
:10005000020EE126DE6ADD6ADECF02F0DDCF03F0BC
:10006000D00E025C070E035805E2DF2A010E01E301
:10007000DB2AF2D7020EE15C02E2E16AE552E16EB0
:10008000E552E7CFD9FF1200D9CFE6FFE1CFD9FF84
:10009000020EE126DE6ADD6ADECF02F0DDCF03F07C
:1000A000D890035004E6300E025C750E035805E24A
:1000B000DF2A010E01E3DB2AEFD7020EE15C02E248
:1000C000E16AE552E16EE552E7CFD9FF1200D9CFE0
:1000D000E6FFE1CFD9FF8B908B92FE0EDB508C6E4A
:1000E0008B828B9291DFE552E7CFD9FF1200D9CFF7
:1000F000E6FFE1CFD9FF8B808B92FE0EDB508C6E3A
:100100008B828B9281DFE552E7CFD9FF12009CDF13
:10011000380EE66EDCDFE5520C0EE66ED8DFE552F7
:10012000010EE66ED4DFE55212008A808A928A942C
:1001300081A010D080A002D0310E38D080A202D091
:10014000340E34D080A402D0370E30D080A602D036
:100150002A0E2CD08A908A828A9481A210D080A004
:1001600002D0320E23D080A202D0350E1FD080A440
:1001700002D0380E1BD080A602D0300E17D08A9045
:100180008A928A8481A410D080A002D0330E0ED02F
:1001900080A202D0360E0AD080A402D0390E06D03A
:1001A00080A602D0230E02D00C0E00D01200000157
:1001B0000C0E6A6F6B6F6C6F6D6F66DF0C0E00015B
:1001C0006A5D04E1B2DF00016A6FF8D76AC0E6FF3A
:1001D0008EDFE55259DF0C0E00016B5D04E1A5DFF7
:1001E00000016B6FF8D76BC0E6FF81DFE5524CDF93
:1001F0000C0E00016C5D04E198DF00016C6FF8D714
:100200006CC0E6FF74DFE5523FDF0C0E00016D5D50
:1002100004E18BDF00016D6FF8D76DC0E6FF67DF8B
:10022000E55232DF310E00016A5D0AE1320E6B5D8C
:1002300007E1330E6C5D04E1340E6D5D01E18B84EA
:100240001200956A9490949294940F0EC16E9390BC
:1002500093929394928092829284928658DF8B94A8
:06026000A6DFFED712002C
:0A026600060EF66E000EF76E000E95
:10027000F86E00010900F550656F0900F550666FD2
:1002800003E1656701D03DD00900F550606F0900BA
:10029000F550616F0900F550626F09000900F550D3
:1002A000E96E0900F550EA6E090009000900F550F1
:1002B000636F0900F550646F09000900F6CF67F01D
:1002C000F7CF68F0F8CF69F060C0F6FF61C0F7FFC4
:1002D00062C0F8FF0001635302E1645307E00900C4
:1002E000F550EE6E6307F8E26407F9D767C0F6FFD2
:1002F00068C0F7FF69C0F8FF00016507000E665B84
:04030000BFD7120051
:0C030400000EF36E00EE00F0060E01D8B3
:100310001200EA6002D0EE6AFCD7F350E9601200E6
:04032000EE6AFCD7AE
:0C03240015EE00F025EE00F0F86A019CD8
:1003300033EC01F0A0EC01F021EC01F0FBD712004E
:020340001200A9
:00000001FF
